:100000000C9462000C948A000C948A000C948A0070
:100010000C948A000C948A000C948A000C948A0038
:100020000C948A000C948A000C948A000C948A0028
:100030000C948A000C948A000C948A000C948A0018
:100040000C9485030C948A000C9453030C942D0398
:100050000C948A000C948A000C948A000C948A00F8
:100060000C948A000C948A000000000024002700F1
:100070002A0000000000250028002B0000000000DE
:1000800023002600290004040404040404040202DA
:100090000202020203030303030301020408102007
:1000A0004080010204081020010204081020000012
:1000B0000008000201000003040700000000000027
:1000C00000000D0511241FBECFEFD8E0DEBFCDBF6D
:1000D00011E0A0E0B1E0E2EDFAE002C005900D927F
:1000E000A831B107D9F721E0A8E1B1E001C01D9224
:1000F000A43CB207E1F710E0C2E6D0E004C02197CB
:10010000FE010E945C05C136D107C9F70E94CF03EA
:100110000C9467050C940000CF92DF92EF92FF924F
:100120000F931F93CF93DF936C017A018B01C0E093
:10013000D0E0CE15DF0589F0D8016D918D01D60193
:10014000ED91FC910190F081E02DC6010995892B7C
:1001500011F47E0102C02196ECCFC701DF91CF914F
:100160001F910F91FF90EF90DF90CF900895089529
:1001700080E090E00895FC01538D448D252F30E000
:10018000842F90E0821B930B541710F0CF960895A4
:1001900001970895FC01918D828D981761F0828DF1
:1001A000DF01A80FB11D5D968C91928D9F5F9F73AB
:1001B000928F90E008958FEF9FEF0895FC01918D4D
:1001C000828D981731F0828DE80FF11D858D90E0BA
:1001D00008958FEF9FEF0895FC01918D228D892F57
:1001E00090E0805C9F4F821B91098F73992708953F
:1001F00087E291E00E94EC0021E0892B09F420E0E5
:10020000822F0895FC01848DDF01A80FB11DA35A30
:10021000BF4F2C91848D90E001968F739927848F26
:10022000A689B7892C93A089B1898C9180648C931D
:10023000938D848D981306C00288F389E02D808108
:100240008F7D80830895EF92FF920F931F93CF933A
:10025000DF93EC0181E0888F9B8D8C8D981305C016
:10026000E889F989808185FD24C0F62E0B8D10E088
:100270000F5F1F4F0F731127E02E8C8DE8120CC0FB
:100280000FB607FCFACFE889F989808185FFF5CFA1
:10029000CE010E940201F1CF8B8DFE01E80FF11D0E
:1002A000E35AFF4FF0820B8FEA89FB8980818062DD
:1002B00007C0EE89FF896083E889F98980818064BD
:1002C000808381E090E0DF91CF911F910F91FF90AB
:1002D000EF900895CF93DF93EC01888D8823C9F0C8
:1002E000EA89FB89808185FD05C0A889B9898C913F
:1002F00086FD0FC00FB607FCF5CF808185FFF2CFDA
:10030000A889B9898C9185FFEDCFCE010E940201A9
:10031000E7CFDF91CF91089580E090E0892B29F01D
:100320000E94F80081110C9400000895833081F040
:1003300028F4813099F08230A1F008958730A9F037
:100340008830B9F08430D1F4809180008F7D03C073
:10035000809180008F7780938000089584B58F7797
:1003600002C084B58F7D84BD08958091B0008F77E1
:1003700003C08091B0008F7D8093B0000895CF932B
:10038000DF93282F30E0F901E255FF4F8491F90106
:10039000E656FF4FD491F901EA57FF4FC491CC23A1
:1003A00091F081110E949601EC2FF0E0EE0FFF1FFB
:1003B000E458FF4FA591B491EC91ED2381E090E0DA
:1003C00021F480E002C080E090E0DF91CF910895B9
:1003D0001F93CF93DF93282F30E0F901E255FF4FB1
:1003E0008491F901E656FF4FD491F901EA57FF4F86
:1003F000C491CC23C9F0162F81110E949601EC2FD5
:10040000F0E0EE0FFF1FEE58FF4FA591B4918FB7AC
:10041000F894111105C09C91ED2FE095E92302C0DD
:10042000EC91ED2BEC938FBFDF91CF911F9108954D
:10043000CF93DF9390E0FC01E656FF4F2491FC013F
:10044000EA57FF4F8491882361F190E0880F991F4C
:10045000FC01E859FF4FC591D491FC01EE58FF4FC4
:10046000A591B491611109C09FB7F8948881209536
:1004700082238883EC912E230BC0623061F49FB7F6
:10048000F8943881822F809583238883EC912E2BDA
:100490002C939FBF06C08FB7F894E8812E2B28833A
:1004A0008FBFDF91CF9108953FB7F89480911D01E0
:1004B00090911E01A0911F01B091200126B5A89B2B
:1004C00005C02F3F19F00196A11DB11D3FBFBA2FE6
:1004D000A92F982F8827820F911DA11DB11DBC0146
:1004E000CD0142E0660F771F881F991F4A95D1F70B
:1004F00008958F929F92AF92BF92CF92DF92EF9228
:10050000FF920E9454024B015C0188EEC82E83E0EA
:10051000D82EE12CF12C0E945402DC01CB01881969
:100520009909AA09BB09883E9340A105B10558F075
:1005300021E0C21AD108E108F10888EE880E83E0B4
:10054000981EA11CB11CC114D104E104F10419F7D7
:10055000FF90EF90DF90CF90BF90AF909F908F90E3
:100560000895009769F0FC0101900020E9F73197A8
:10057000AF01481B590BBC0187E291E00C948C0041
:1005800080E090E008958F929F92AF92BF920F9378
:100590001F93CF93DF93CDB7DEB7A1970FB6F89433
:1005A000DEBF0FBECDBF19A2423008F44AE08E0173
:1005B0000F5D1F4F842E912CA12CB12CA50194010D
:1005C0000E943A05E62FB901CA0101501109EA302B
:1005D00014F4E05D01C0E95CD801EC93232B242BDB
:1005E000252B61F7C8010E94B102A1960FB6F894BD
:1005F000DEBF0FBECDBFDF91CF911F910F91BF9096
:10060000AF909F908F900895CF92DF92EF92FF92DC
:10061000CF93DF936B017C01E0912701F0912801DA
:100620000190F081E02D6DE287E291E00995EC0107
:1006300066277727CB016C197D098E099F094AE04F
:100640000E94C3028C0F9D1FDF91CF91FF90EF900E
:10065000DF90CF9008950E9462051F920F920FB60F
:100660000F9211242F933F934F935F936F937F9338
:100670008F939F93AF93BF93EF93FF9387E291E0A4
:100680000E940201FF91EF91BF91AF919F918F91D5
:100690007F916F915F914F913F912F910F900FBE7E
:1006A0000F901F9018951F920F920FB60F92112462
:1006B0002F938F939F93EF93FF93E0913701F091E6
:1006C00038018081E0913D01F0913E0182FD12C030
:1006D0009081809140018F5F8F732091410182173B
:1006E00051F0E0914001F0E0E95DFE4F958F80937D
:1006F000400101C08081FF91EF919F918F912F91D7
:100700000F900FBE0F901F9018951F920F920FB66B
:100710000F9211242F933F938F939F93AF93BF9387
:100720008091190190911A01A0911B01B0911C01B7
:100730003091180123E0230F2D3720F40196A11DDD
:10074000B11D05C026E8230F0296A11DB11D2093FF
:1007500018018093190190931A01A0931B01B09383
:100760001C0180911D0190911E01A0911F01B0916B
:1007700020010196A11DB11D80931D0190931E01C2
:10078000A0931F01B0932001BF91AF919F918F91D2
:100790003F912F910F900FBE0F901F901895789456
:1007A00084B5826084BD84B5816084BD85B5826076
:1007B00085BD85B5816085BD80916E008160809327
:1007C0006E00109281008091810082608093810090
:1007D00080918100816080938100809180008160A0
:1007E000809380008091B10084608093B1008091FB
:1007F000B00081608093B00080917A008460809323
:100800007A0080917A00826080937A0080917A00E9
:10081000816080937A0080917A00806880937A006A
:100820001092C10060E08EE00E94180260E08FE04C
:100830000E94180261E085E00E94180261E086E0F3
:100840000E94180261E08AE00E94180261E08BE0D9
:100850000E941802E0913701F091380182E0808314
:10086000E0913301F09134011082E0913501F09173
:1008700036018FEC808310923F01E0913B01F091B3
:100880003C0186E08083E0913901F0913A0180815A
:1008900080618083E0913901F0913A018081886024
:1008A0008083E0913901F0913A01808180688083F2
:1008B000E0913901F0913A0180818F7D808361E080
:1008C00085E00E94E8018FE00E94BF01019709F0D6
:1008D000A1C060E085E00E94E80161E086E00E943E
:1008E000E8010E947902C0912501D091260121964C
:1008F000D0932601C093250160E086E00E94E801C4
:10090000EC9781F561E08AE00E94E8010E9479029B
:1009100060E08AE00E94E801109226011092250111
:10092000809123019091240101969093240180935A
:100930002301CC97B9F461E086E00E94E8010E94AF
:10094000790260E086E00E94E80110922401109292
:10095000230180912101909122010196909322011F
:100960008093210161E08BE00E94E8016091210108
:1009700070912201072E000C880B990B97FF03C082
:100980000E94040303C04AE00E94C30282E191E096
:100990000E94B1026091230170912401072E000C86
:1009A000880B990B97FF03C00E94040303C04AE021
:1009B0000E94C30282E191E00E94B1026091250190
:1009C00070912601072E000C880B990B97FF03C02E
:1009D0000E94040303C04AE00E94C30284E191E044
:1009E0000E94B1020E94790260E08BE00E94E8015F
:1009F0008EE00E94BF01019709F073CF109226018B
:100A000010922501109224011092230110922201CC
:100A1000109221010E948C0152CFE7E2F1E0138293
:100A2000128288EE93E0A0E0B0E084839583A683F1
:100A3000B78384E091E09183808385EC90E0958793
:100A4000848784EC90E09787868780EC90E0918B98
:100A5000808B81EC90E0938B828B82EC90E0958B85
:100A6000848B86EC90E0978B868B118E128E138E82
:100A7000148E0895A1E21A2EAA1BBB1BFD010DC006
:100A8000AA1FBB1FEE1FFF1FA217B307E407F5073E
:100A900020F0A21BB30BE40BF50B661F771F881F1A
:100AA000991F1A9469F760957095809590959B01B0
:100AB000AC01BD01CF010895EE0FFF1F0590F49129
:100AC000E02D099481E090E0F8940C946705F89487
:020AD000FFCF56
:100AD2000000000023018C00BB006A01EC00CA0088
:080AE200DE003A000D0A0000DD
:00000001FF
